S00C0000554152542E73726563DC
S113000092C0000088C30000B4C30000E0C3000035
S11300100CC4000038C4000064C4000090C4000094
S1130020BCC40000A0C000009EC000009CC0000032
S11300309AC0000098C0000096C0000094C0000060
S113004092C0000090C000008EC000008CC0000070
S11300508AC0000088C0000086C0000084C0000080
S113006082C000000C94F5090C94810B0C94C10A15
S11300707AC0000078C0000076C0000074C00000A0
S113008072C0000070C000006EC000006CC00000B0
S11300900C94280A0C94A90B0C94F10A64C0000077
S11300A062C0000060C000005EC000005CC00000D0
S11300B05AC0000058C0000056C0000054C00000E0
S11300C052C0000050C000004EC000000C945B0AF7
S11300D00C94D10B0C94210B0C948E0A0C94F90BF8
S11300E00C94510B0E051B052805350542054F05DB
S11300F05C056C05790586059305C505CC05D30516
S1130100DA05E105E805EF05F805FF0506060D0625
S11301103806400648065006580660066806720609
S11301207A0682068A0611241FBECFEFD1E2DEBF13
S1130130CDBF00E00CBF12E0A0E0B2E0E8E6F8E1D9
S113014000E00BBF02C007900D92A630B107D9F7AB
S113015022E0A6E0B2E001C01D92A133B207E1F7AC
S11301605ED60C94320C4CCFCF93C82F843090F4CD
S1130170682F89E290E09BD1E0911902F0911A0274
S11301803097C9F041E0811101C040E06C2F83E059
S1130190199511C0682F8CE290E089D141E081115A
S11301A001C040E0E0911902F0911A02309719F071
S11301B06C2F84E01995CF910895CF9310921A0271
S11301C0109219029DEF980F923050F0833088F10D
S11301D08550863098F162E070E080E090E045C0A0
S11301E0683088F5C62F833089F4643088F524EBB1
S11301F030E041E08BE290E065D140E06C2F8AE290
S113020090E03AD060E070E0CB012FC0843029F553
S1130210643038F124EB30E041E08EE290E052D1DA
S113022040E06C2F8DE290E027D060E070E0CB01DD
S11302301CC064E070E080E090E017C064E070E00F
S113024080E090E012C063E070E080E090E00DC0D8
S113025064E070E080E090E008C060E070E0CB0112
S113026004C064E070E080E090E0CF910895909342
S11302701A02809319020895FC01892B09F451C0D4
S1130280908181B1981761F1908184B1981741F1FF
S1130290908187B1981721F190818AB1981701F163
S11302A090818DB19817E1F0908180B39817C1F0D7
S11302B0908183B39817A1F09081809101019817E0
S11302C079F0908180910401981751F09081809188
S11302D00701981729F0908180910A01981326C08C
S11302E0683048F5442371F0208181E090E002C039
S11302F0880F991F6A95E2F7822B808360E070E093
S1130300CB010895208181E090E002C0880F991FFD
S11303106A95E2F780958223808360E070E0CB01E8
S1130320089561E070E080E090E0089562E070E09C
S113033080E090E0089563E070E080E090E008954C
S1130340FC01892B09F451C0908182B1981761F1A5
S1130350908185B1981741F1908188B1981721F166
S113036090818BB1981701F190818EB19817E1F0CB
S1130370908181B39817C1F0908184B39817A1F04C
S1130380908180910201981779F090818091050104
S1130390981751F0908180910801981729F0908165
S11303A080910B01981326C0683048F5442371F0FE
S11303B0208181E090E002C0880F991F6A95E2F7DE
S11303C0822B808360E070E0CB010895208181E07E
S11303D090E002C0880F991F6A95E2F78095822306
S11303E0808360E070E0CB01089561E070E080E01C
S11303F090E0089562E070E080E090E0089563E0AA
S113040070E080E090E00895FC01892B09F440C07D
S1130410908182B1981761F1908185B1981741F16B
S1130420908188B1981721F190818BB1981701F1CF
S113043090818EB19817E1F0908181B39817C1F043
S1130440908184B39817A1F090818091020198174C
S113045079F0908180910501981751F090818091F5
S11304600801981729F0908180910B01981315C009
S11304706830C0F4208181E090E002C0880F991FA9
S11304806A95E2F78227808360E070E0CB010895EB
S113049061E070E080E090E0089562E070E080E068
S11304A090E0089563E070E080E090E00895FC013E
S11304B0208181E090E002C0880F991F6A95E2F7DD
S11304C082230895CF93DF93FC01892B09F4D6C0CE
S11304D090818BB19817D1F190818EB19817B1F1B9
S11304E0908182B1981709F4CEC0908185B1981794
S11304F009F4CEC0908188B1981709F4CEC09081D8
S113050081B3981709F4CEC0908184B3981709F485
S1130510CEC0908180910201981709F4CDC09081DA
S113052080910501981709F4CCC09081809108014D
S1130530981709F4CBC0908180910B01981709F4A6
S1130540CAC062E070E080E090E0E2C0683008F089
S1130550C7C090818BB1981303C0643068F0CFC0DA
S113056090818EB19813C1C0643008F4C3C08CEF7D
S1130570860FEAE6F0E003C0862FE9E6F0E04130BA
S1130580F9F030F04230B1F1433009F44EC063C0A9
S1130590708190E0880F991FDC01119641E050E0D2
S11305A0EA0102C0CC0FDD1FAA95E2F702C0440F96
S11305B0551F8A95E2F74C2B4095472340834BC047
S11305C0708190E0880F991F41E050E0DA01082E15
S11305D002C0AA0FBB1F0A94E2F7A72BA083708165
S11305E0019602C0440F551F8A95E2F740954723B0
S11305F0408331C0708190E0880F991FDC0111960F
S113060041E050E0EA0102C0CC0FDD1FAA95E2F7F9
S1130610DE01A72BA083908102C0440F551F8A9549
S1130620E2F740954923408316C0708190E0880F1B
S1130630991FDC01119641E050E0EA0102C0CC0FA1
S1130640DD1FAA95E2F702C0440F551F8A95E2F711
S1130650472B4C2B40834DB381E090E002C0880FC0
S1130660991F6A95E2F7842B8DBB78943093070227
S11306702093060260E070E0CB014AC061E070E0C4
S113068080E090E045C064E070E080E090E040C02D
S113069064E070E080E090E03BC064E070E080E003
S11306A090E036C064E070E080E090E031C064E047
S11306B070E080E090E02CC064E070E080E090E0C6
S11306C027C064E070E080E090E022C064E070E065
S11306D080E090E01DC064E070E080E090E018C02D
S11306E063E070E080E090E013C064E070E080E0DC
S11306F090E00EC064E070E080E090E009C090817A
S11307008EB1981709F433CF64E070E080E090E094
S1130710DF91CF9108951F920F920FB60F9211247B
S11307200BB60F922F933F934F935F936F937F93E7
S11307308F939F93AF93BF93EF93FF93E091060240
S1130740F0910702309711F080E01995FF91EF9135
S1130750BF91AF919F918F917F916F915F914F91D5
S11307603F912F910F900BBE0F900FBE0F901F90D3
S113077018951F920F920FB60F9211240BB60F9279
S11307802F933F934F935F936F937F938F939F9395
S1130790AF93BF93EF93FF93E0910602F0910702AA
S11307A0309711F081E01995FF91EF91BF91AF91CE
S11307B09F918F917F916F915F914F913F912F9175
S11307C00F900BBE0F900FBE0F901F9018951F92A5
S11307D00F920FB60F9211240BB60F922F933F93E3
S11307E04F935F936F937F938F939F93AF93BF9335
S11307F0EF93FF93E0910602F0910702309711F016
S113080082E01995FF91EF91BF91AF919F918F91E4
S11308107F916F915F914F913F912F910F900BBEFC
S11308200F900FBE0F901F9018951F920F920FB646
S11308300F9211240BB60F922F933F934F935F9314
S11308406F937F938F939F93AF93BF93EF93FF9394
S1130850E0910602F0910702309711F083E01995B8
S1130860FF91EF91BF91AF919F918F917F916F9184
S11308705F914F913F912F910F900BBE0F900FBE40
S11308800F901F9018951F920F920FB60F9211247C
S11308900BB60F922F933F934F935F936F937F9376
S11308A08F939F93AF93BF93EF93FF93E0910602CF
S11308B0F0910702309711F084E01995FF91EF91C0
S11308C0BF91AF919F918F917F916F915F914F9164
S11308D03F912F910F900BBE0F900FBE0F901F9062
S11308E018951F920F920FB60F9211240BB60F9208
S11308F02F933F934F935F936F937F938F939F9324
S1130900AF93BF93EF93FF93E0910602F091070238
S1130910309711F085E01995FF91EF91BF91AF9158
S11309209F918F917F916F915F914F913F912F9103
S11309300F900BBE0F900FBE0F901F9018951F9233
S11309400F920FB60F9211240BB60F922F933F9371
S11309504F935F936F937F938F939F93AF93BF93C3
S1130960EF93FF93E0910602F0910702309711F0A4
S113097086E01995FF91EF91BF91AF919F918F916F
S11309807F916F915F914F913F912F910F900BBE8B
S11309900F900FBE0F901F9018951F920F920FB6D5
S11309A00F9211240BB60F922F933F934F935F93A3
S11309B06F937F938F939F93AF93BF93EF93FF9323
S11309C0E0910602F0910702309711F087E0199543
S11309D0FF91EF91BF91AF919F918F917F916F9113
S11309E05F914F913F912F910F900BBE0F900FBECF
S11309F00F901F901895CF938B3008F0A1C06830EA
S1130A0008F0A3C090E08B30910508F0A3C0C62F76
S1130A10FC018827EE58FF4F8F4F13C741E081E256
S1130A2090E02ADC40E06C2F82E290E089DC60E018
S1130A3070E0CB0197C041E084E290E01DDC40E02F
S1130A406C2F85E290E07CDC60E070E0CB018AC032
S1130A5041E087E290E010DC40E06C2F88E290E017
S1130A606FDC60E070E0CB017DC041E08AE290E0A1
S1130A7003DC40E06C2F8BE290E062DC60E070E02D
S1130A80CB0170C041E08DE290E0F6DB40E06C2FDA
S1130A908EE290E055DC60E070E0CB0163C041E0A1
S1130AA080E390E0E9DB40E06C2F81E390E048DCF8
S1130AB060E070E0CB0156C0663008F04FC041E002
S1130AC083E390E0D9DB40E06C2F84E390E038DCF2
S1130AD060E070E0CB0146C041E081E091E0CCDB16
S1130AE040E06C2F82E091E02BDC60E070E0CB0111
S1130AF039C041E084E091E0BFDB40E06C2F85E049
S1130B0091E01EDC60E070E0CB012CC041E087E0A6
S1130B1091E0B2DB40E06C2F88E091E011DC60E012
S1130B2070E0CB011FC041E08AE091E0A5DB40E02A
S1130B306C2F8BE091E004DC60E070E0CB0112C02C
S1130B4062E070E080E090E00DC063E070E080E07F
S1130B5090E008C060E070E0CB0104C063E070E0A6
S1130B6080E090E0CF9108958B3008F05DC068304C
S1130B7008F05FC090E08B30910508F05FC0FC0185
S1130B808827E358FF4F8F4F5CC682E290E03CDC3D
S1130B9060E070E0CB01089585E290E035DC60E030
S1130BA070E0CB01089588E290E02EDC60E070E014
S1130BB0CB0108958BE290E027DC60E070E0CB018C
S1130BC008958EE290E020DC60E070E0CB010895AF
S1130BD081E390E019DC60E070E0CB0108956630B9
S1130BE088F584E390E010DC60E070E0CB010895C8
S1130BF082E091E009DC60E070E0CB01089585E0DB
S1130C0091E002DC60E070E0CB01089588E091E0BF
S1130C10FBDB60E070E0CB0108958BE091E0F4DB56
S1130C2060E070E0CB01089562E070E080E090E065
S1130C30089563E070E080E090E0089560E070E083
S1130C40CB01089563E070E080E090E008958B307C
S1130C5008F068C0683008F06AC090E08B309105F5
S1130C6008F06AC0FC018827E857FF4F8F4FE9C599
S1130C7040E082E290E064DB60E070E0CB01089544
S1130C8040E085E290E05CDB60E070E0CB01089539
S1130C9040E088E290E054DB60E070E0CB0108952E
S1130CA040E08BE290E04CDB60E070E0CB01089523
S1130CB040E08EE290E044DB60E070E0CB01089518
S1130CC040E081E390E03CDB60E070E0CB0108951C
S1130CD06630B0F540E084E390E032DB60E070E041
S1130CE0CB01089540E082E091E02ADB60E070E00F
S1130CF0CB01089540E085E091E022DB60E070E004
S1130D00CB01089540E088E091E01ADB60E070E0F8
S1130D10CB01089540E08BE091E012DB60E070E0ED
S1130D20CB01089562E070E080E090E0089563E014
S1130D3070E080E090E0089560E070E0CB010895F9
S1130D4063E070E080E090E0089581110CC067E0FA
S1130D5081E00ADF2FEF89E698E12150804090403E
S1130D60E1F700C000000895811134C0653091F5A9
S1130D70411130C067E081E0F7DE2FEF89E698E1AA
S1130D80215080409040E1F700C0000067E081E01E
S1130D90EBDE2FEF89E698E1215080409040E1F7A7
S1130DA000C0000067E081E0DFDE2FEF89E698E114
S1130DB0215080409040E1F700C0000067E081E0EE
S1130DC0D3DE2FEF89E698E1215080409040E1F78F
S1130DD000C000000895CF93DF9300D01F921F92AC
S1130DE0CDB7DEB795E0E0E0F2E0DE0111960190C8
S1130DF00D929A95E1F7833051F4611108C04111C5
S1130E0006C045E0BE016F5F7F4F80E02CD10F909C
S1130E100F900F900F900F90DF91CF91089560E0A5
S1130E2083E0CBD98BEE96E022DA67E081E0E3DD64
S1130E3067E081E00CDF02E028E040E855E260E092
S1130E4070E080E060D265EA76E084EB96E001D061
S1130E50FFCF009779F06115710589F0909318021E
S1130E6080931702709316026093150260E070E09D
S1130E70CB01089568E070E080E090E0089568E0B8
S1130E8070E080E090E00895843008F0AAC08130DA
S1130E9081F138F0823009F454C0833009F479C008
S1130EA0A5C080EC90E0909314028093130281EC2F
S1130EB090E0909312028093110282EC90E0909360
S1130EC0100280930F0284EC90E090930E028093C2
S1130ED00D0285EC90E090930C0280930B0286EC5B
S1130EE090E090930A028093090260E070E0CB01E5
S1130EF0089588EC90E0909314028093130289EC97
S1130F0090E090931202809311028AEC90E0909307
S1130F10100280930F028CEC90E090930E02809369
S1130F200D028DEC90E090930C0280930B028EECFA
S1130F3090E090930A028093090260E070E0CB0194
S1130F40089580ED90E0909314028093130281ED54
S1130F5090E0909312028093110282ED90E09093BE
S1130F60100280930F0284ED90E090930E02809320
S1130F700D0285ED90E090930C0280930B0286EDB8
S1130F8090E090930A028093090260E070E0CB0144
S1130F90089580E391E0909314028093130281E317
S1130FA091E0909312028093110282E391E0909376
S1130FB0100280930F0284E391E090930E028093D9
S1130FC00D0285E391E090930C0280930B0286E37B
S1130FD091E090930A028093090260E070E0CB01F3
S1130FE0089565E070E080E090E0089560E070E0CE
S1130FF0CB01089549DF90911B0280911C02981740
S113100020F580910802882369F1F894E091130295
S1131010F0911402808185FF16C0A0910902B0915D
S11310200A02E0911B0281E08E0F80931B02F0E024
S1131030E35EFD4F80818C93E0911302F0911402E2
S113104080818F7D80837894089598130BC080915C
S11310500802882339F0E0911102F0911202808194
S11310608F7D808308950F931F93CF93DF93442341
S113107041F190910802911128C0C42F8B01D82FFF
S113108003DF672B682B692B29F5C53140F581E017
S1131090809308024C2F50E0B8018DE192E0D9D33F
S11310A0C0931C0210921B028D2FA4DFE091110249
S11310B0F091120280818062808360E070E0CB0155
S11310C012C060E070E0CB010EC069E070E080E027
S11310D090E009C065E070E080E090E004C06AE060
S11310E070E080E090E0DF91CF911F910F9108951F
S11310F0603629E0720781059105A1F0603C22E188
S113110072078105910589F0603825E2720781052F
S1131110910571F061157B4481059105D9F483E350
S113112090E008C080EA91E005C08FEC90E002C036
S113113087E690E0E0910D02F0910E028083E09149
S11311400B02F0910C0288279F70908360E070E09E
S1131150CB01089566E070E080E090E008959BEF95
S1131160980F943008F089C0863019F118F485304E
S113117039F06AC08730B1F1883009F44CC064C0DA
S1131180E0911102F091120280818B7F8083E091C3
S11311900F02F091100280818B7F8083E0910F0217
S11311A0F091100280818D7F808360E070E0CB013C
S11311B00895E0911102F091120280818B7F808367
S11311C0E0910F02F091100280818B7F8083E09187
S11311D00F02F091100280818260808360E070E0F1
S11311E0CB010895E0911102F091120280818B7F6E
S11311F08083E0910F02F0911002808184608083EB
S1131200E0910F02F091100280818D7F808360E075
S113121070E0CB010895E0911102F09112028081F7
S11312208B7F8083E0910F02F091100280818460B3
S11312308083E0910F02F0911002808182608083AC
S113124060E070E0CB010895E0911102F091120288
S113125080818B7F8083E0910F02F0911002808166
S113126084608083E0910F02F0911002808182609B
S1131270808360E070E0CB01089567E070E080E077
S113128090E00895813009F188F0823069F5E091A9
S11312900F02F091100280818F7D8083E0910F0214
S11312A0F091100280818F7E80830895E0910F0277
S11312B0F0911002808180628083E0910F02F091AE
S11312C0100280818F7E80830895E0910F02F09157
S11312D01002808180628083E0910F02F0911002FD
S11312E08081806180830895E0910F02F091100263
S11312F080818F7D8083E0910F02F09110028081C4
S11313008F7E80830895CF92DF92EF92FF920F93A6
S1131310CF936A017B01C22F7894B6DD672B682BCB
S1131320692B09F04DC0C701B601E2DE672B682BBB
S1131330692B09F04AC08C2F12DF672B682B692BAD
S113134009F048C0802F9EDFE0910F02F091100257
S113135080818F738083E0910F02F091100280816D
S1131360877F8083E0910F02F091100280818E7F4D
S11313708083E0911302F091140280818064808361
S1131380E0911302F09114028081807E8083E091C9
S11313901102F09112028081806C8083E09111022D
S11313A0F091120280818F7D8083E0911102F0918F
S11313B0120280818861808360E070E0CB010EC0FE
S11313C065E070E080E090E009C066E070E080E0F5
S11313D090E004C067E070E080E090E0CF910F916E
S11313E0FF90EF90DF90CF9008951F920F920FB669
S11313F00F9211240BB60F922F933F934F935F9349
S11314006F937F938F939F93AF93BF93EF93FF93C8
S11314108091C0006091C60041E082FF40E0E0910D
S11314201702F091180280E01995FF91EF91BF9196
S1131430AF919F918F917F916F915F914F913F9168
S11314402F910F900BBE0F900FBE0F901F90189509
S11314501F920F920FB60F9211240BB60F922F9377
S11314603F934F935F936F937F938F939F93AF9328
S1131470BF93EF93FF938091C8006091CE0041E049
S113148082FF40E0E0911702F091180281E0199583
S1131490FF91EF91BF91AF919F918F917F916F9148
S11314A05F914F913F912F910F900BBE0F900FBE04
S11314B00F901F9018951F920F920FB60F92112440
S11314C00BB60F922F933F934F935F936F937F933A
S11314D08F939F93AF93BF93EF93FF938091D0002B
S11314E06091D60041E082FF40E0E0911702F09164
S11314F0180282E01995FF91EF91BF91AF919F91EE
S11315008F917F916F915F914F913F912F910F90A8
S11315100BBE0F900FBE0F901F9018951F920F9245
S11315200FB60F9211240BB60F922F933F934F9344
S11315305F936F937F938F939F93AF93BF93EF9337
S1131540FF93809130016091360141E082FF40E0D9
S1131550E0911702F091180283E01995FF91EF9141
S1131560BF91AF919F918F917F916F915F914F91B7
S11315703F912F910F900BBE0F900FBE0F901F90B5
S113158018951F920F920FB60F9211240BB60F925B
S11315902F933F934F935F936F937F938F939F9377
S11315A0AF93BF93EF93FF9310921B021092080224
S11315B0E0911502F091160280E01995FF91EF91E8
S11315C0BF91AF919F918F917F916F915F914F9157
S11315D03F912F910F900BBE0F900FBE0F901F9055
S11315E018951F920F920FB60F9211240BB60F92FB
S11315F02F933F934F935F936F937F938F939F9317
S1131600AF93BF93EF93FF9310921B0210920802C3
S1131610E0911502F091160281E01995FF91EF9186
S1131620BF91AF919F918F917F916F915F914F91F6
S11316303F912F910F900BBE0F900FBE0F901F90F4
S113164018951F920F920FB60F9211240BB60F929A
S11316502F933F934F935F936F937F938F939F93B6
S1131660AF93BF93EF93FF9310921B021092080263
S1131670E0911502F091160282E01995FF91EF9125
S1131680BF91AF919F918F917F916F915F914F9196
S11316903F912F910F900BBE0F900FBE0F901F9094
S11316A018951F920F920FB60F9211240BB60F923A
S11316B02F933F934F935F936F937F938F939F9356
S11316C0AF93BF93EF93FF9310921B021092080203
S11316D0E0911502F091160283E01995FF91EF91C4
S11316E0BF91AF919F918F917F916F915F914F9136
S11316F03F912F910F900BBE0F900FBE0F901F9034
S113170018951F920F920FB60F9211240BB60F92D9
S11317102F933F934F935F936F937F938F939F93F5
S1131720AF93BF93EF93FF9380E064DCFF91EF915D
S1131730BF91AF919F918F917F916F915F914F91E5
S11317403F912F910F900BBE0F900FBE0F901F90E3
S113175018951F920F920FB60F9211240BB60F9289
S11317602F933F934F935F936F937F938F939F93A5
S1131770AF93BF93EF93FF9381E03CDCFF91EF9134
S1131780BF91AF919F918F917F916F915F914F9195
S11317903F912F910F900BBE0F900FBE0F901F9093
S11317A018951F920F920FB60F9211240BB60F9239
S11317B02F933F934F935F936F937F938F939F9355
S11317C0AF93BF93EF93FF9382E014DCFF91EF910B
S11317D0BF91AF919F918F917F916F915F914F9145
S11317E03F912F910F900BBE0F900FBE0F901F9043
S11317F018951F920F920FB60F9211240BB60F92E9
S11318002F933F934F935F936F937F938F939F9304
S1131810AF93BF93EF93FF9383E0ECDBFF91EF91E2
S1131820BF91AF919F918F917F916F915F914F91F4
S11318303F912F910F900BBE0F900FBE0F901F90F2
S11318401895EE0FFF1F881F8BBF0790F691E02DB0
S11318501994FB01DC0102C001900D9241505040EB
S10B1860D8F70895F894FFCFB6
S10918680305060A180046
S9030000FC
