:100000007CC000007CC30000A8C30000D4C3000073
:1000100000C400002CC4000058C4000084C40000C8
:10002000B0C400008AC0000088C0000086C0000084
:1000300084C0000082C0000080C000007EC00000BC
:100040007CC000007AC0000078C0000076C00000CC
:1000500074C0000072C0000070C000006EC00000DC
:100060006CC000000C9490090C94500B0C94640A22
:1000700064C0000062C0000060C000005EC00000FC
:100080005CC000005AC0000058C0000056C000000C
:100090000C94C5090C94780B0C949F0A4EC0000078
:1000A0004CC000004AC0000048C0000046C000002C
:1000B00044C0000042C0000040C000003EC000003C
:1000C0003CC000003AC0000038C000000C94FA099F
:1000D0000C94A00B0C94DA0A0C942F0A0C94C80B05
:1000E0000C94150BFD040D051D052D053D054D0555
:1000F0005D056D057D058D059D0511241FBECFEFA6
:10010000D1E2DEBFCDBF00E00CBF12E0A0E0B2E064
:10011000E6E0F8E100E00BBF02C007900D92A630C8
:10012000B107D9F722E0A6E0B2E001C01D92A533E5
:10013000B207E1F703D60C94010C62CFCF93C82F1E
:10014000843090F4682F89E290E0A5D1E0911D02FF
:10015000F0911E023097C9F041E0811101C040E0EA
:100160006C2F83E0199511C0682F8CE290E093D139
:1001700041E0811101C040E0E0911D02F0911E02BA
:10018000309719F06C2F84E01995CF910895CF9393
:1001900010921E0210921D029DEF980F923050F0A7
:1001A000833088F18550863098F162E070E080E01D
:1001B00090E045C0683088F5C62F833089F46430FC
:1001C00088F52EE930E041E08BE290E06FD140E02D
:1001D0006C2F8AE290E044D060E070E0CB012FC049
:1001E000843029F5643038F12EE930E041E08EE2C8
:1001F00090E05CD140E06C2F8DE290E031D060E087
:1002000070E0CB011CC064E070E080E090E017C0BB
:1002100064E070E080E090E012C063E070E080E0B5
:1002200090E00DC064E070E080E090E008C060E025
:1002300070E0CB0104C064E070E080E090E0CF911A
:100240000895009741F090931E0280931D0260E094
:1002500070E0CB01089568E070E080E090E00895E0
:10026000FC01892B09F451C0908181B1981761F18B
:10027000908184B1981741F1908187B1981721F14D
:1002800090818AB1981701F190818DB19817E1F0B2
:10029000908180B39817C1F0908183B39817A1F033
:1002A000908180910101981779F0908180910401EB
:1002B000981751F0908180910701981729F090814B
:1002C00080910A01981326C0683048F5442371F0E4
:1002D000208181E090E002C0880F991F6A95E2F7C3
:1002E000822B808360E070E0CB010895208181E063
:1002F00090E002C0880F991F6A95E2F780958223EB
:10030000808360E070E0CB01089561E070E080E000
:1003100090E0089562E070E080E090E0089563E08E
:1003200070E080E090E00895FC01892B09F451C051
:10033000908182B1981761F1908185B1981741F150
:10034000908188B1981721F190818BB1981701F1B4
:1003500090818EB19817E1F0908181B39817C1F028
:10036000908184B39817A1F0908180910201981731
:1003700079F0908180910501981751F090818091DA
:100380000801981729F0908180910B01981326C0DD
:10039000683048F5442371F0208181E090E002C08C
:1003A000880F991F6A95E2F7822B808360E070E0E6
:1003B000CB010895208181E090E002C0880F991F51
:1003C0006A95E2F780958223808360E070E0CB013C
:1003D000089561E070E080E090E0089562E070E0F0
:1003E00080E090E0089563E070E080E090E00895A0
:1003F000FC01892B09F440C0908182B1981761F10A
:10040000908185B1981741F1908188B1981721F1B9
:1004100090818BB1981701F190818EB19817E1F01E
:10042000908181B39817C1F0908184B39817A1F09F
:10043000908180910201981779F090818091050157
:10044000981751F0908180910801981729F09081B8
:1004500080910B01981315C06830C0F4208181E0B1
:1004600090E002C0880F991F6A95E2F78227808387
:1004700060E070E0CB01089561E070E080E090E022
:10048000089562E070E080E090E0089563E070E03D
:1004900080E090E00895FC01208181E090E002C0BE
:1004A000880F991F6A95E2F782230895CF93DF930F
:1004B000FC01892B09F4D6C090818BB19817D1F13A
:1004C00090818EB19817B1F1908182B1981709F49B
:1004D000CEC0908185B1981709F4CEC0908188B1C3
:1004E000981709F4CEC0908181B3981709F4CEC053
:1004F000908184B3981709F4CEC090818091020155
:10050000981709F4CDC0908180910501981709F4DE
:10051000CCC0908180910801981709F4CBC09081DC
:1005200080910B01981709F4CAC062E070E080E086
:1005300090E0E2C0683008F0C7C090818BB198139A
:1005400003C0643068F0CFC090818EB19813C1C0F1
:10055000643008F4C3C08CEF860FEAE6F0E003C015
:10056000862FE9E6F0E04130F9F030F04230B1F1A9
:10057000433009F44EC063C0708190E0880F991F2A
:10058000DC01119641E050E0EA0102C0CC0FDD1F12
:10059000AA95E2F702C0440F551F8A95E2F74C2B4B
:1005A0004095472340834BC0708190E0880F991F8E
:1005B00041E050E0DA01082E02C0AA0FBB1F0A94E6
:1005C000E2F7A72BA0837081019602C0440F551F4C
:1005D0008A95E2F740954723408331C0708190E0CF
:1005E000880F991FDC01119641E050E0EA0102C03A
:1005F000CC0FDD1FAA95E2F7DE01A72BA083908127
:1006000002C0440F551F8A95E2F740954923408365
:1006100016C0708190E0880F991FDC01119641E0AF
:1006200050E0EA0102C0CC0FDD1FAA95E2F702C03C
:10063000440F551F8A95E2F7472B4C2B40834DB34F
:1006400081E090E002C0880F991F6A95E2F7842B41
:100650008DBB7894309307022093060260E070E02F
:10066000CB014AC061E070E080E090E045C064E00A
:1006700070E080E090E040C064E070E080E090E0F6
:100680003BC064E070E080E090E036C064E070E081
:1006900080E090E031C064E070E080E090E02CC049
:1006A00064E070E080E090E027C064E070E080E00B
:1006B00090E022C064E070E080E090E01DC064E063
:1006C00070E080E090E018C063E070E080E090E0CF
:1006D00013C064E070E080E090E00EC064E070E081
:1006E00080E090E009C090818EB1981709F433CF73
:1006F00064E070E080E090E0DF91CF9108951F9278
:100700000F920FB60F9211240BB60F922F933F93B7
:100710004F935F936F937F938F939F93AF93BF9309
:10072000EF93FF93E0910602F0910702309711F0EA
:1007300080E01995FF91EF91BF91AF919F918F91BB
:100740007F916F915F914F913F912F910F900BBED1
:100750000F900FBE0F901F9018951F920F920FB61B
:100760000F9211240BB60F922F933F934F935F93E9
:100770006F937F938F939F93AF93BF93EF93FF9369
:10078000E0910602F0910702309711F081E019958F
:10079000FF91EF91BF91AF919F918F917F916F9159
:1007A0005F914F913F912F910F900BBE0F900FBE15
:1007B0000F901F9018951F920F920FB60F92112451
:1007C0000BB60F922F933F934F935F936F937F934B
:1007D0008F939F93AF93BF93EF93FF93E0910602A4
:1007E000F0910702309711F082E01995FF91EF9197
:1007F000BF91AF919F918F917F916F915F914F9139
:100800003F912F910F900BBE0F900FBE0F901F9036
:1008100018951F920F920FB60F9211240BB60F92DC
:100820002F933F934F935F936F937F938F939F93F8
:10083000AF93BF93EF93FF93E0910602F09107020D
:10084000309711F083E01995FF91EF91BF91AF912F
:100850009F918F917F916F915F914F913F912F91D8
:100860000F900BBE0F900FBE0F901F9018951F9208
:100870000F920FB60F9211240BB60F922F933F9346
:100880004F935F936F937F938F939F93AF93BF9398
:10089000EF93FF93E0910602F0910702309711F079
:1008A00084E01995FF91EF91BF91AF919F918F9146
:1008B0007F916F915F914F913F912F910F900BBE60
:1008C0000F900FBE0F901F9018951F920F920FB6AA
:1008D0000F9211240BB60F922F933F934F935F9378
:1008E0006F937F938F939F93AF93BF93EF93FF93F8
:1008F000E0910602F0910702309711F085E019951A
:10090000FF91EF91BF91AF919F918F917F916F91E7
:100910005F914F913F912F910F900BBE0F900FBEA3
:100920000F901F9018951F920F920FB60F921124DF
:100930000BB60F922F933F934F935F936F937F93D9
:100940008F939F93AF93BF93EF93FF93E091060232
:10095000F0910702309711F086E01995FF91EF9121
:10096000BF91AF919F918F917F916F915F914F91C7
:100970003F912F910F900BBE0F900FBE0F901F90C5
:1009800018951F920F920FB60F9211240BB60F926B
:100990002F933F934F935F936F937F938F939F9387
:1009A000AF93BF93EF93FF93E0910602F09107029C
:1009B000309711F087E01995FF91EF91BF91AF91BA
:1009C0009F918F917F916F915F914F913F912F9167
:1009D0000F900BBE0F900FBE0F901F9018958B308D
:1009E00008F0BBC090E08B30910508F0BBC0FC0163
:1009F0008827EE58FF4F8F4FF3C681E290E0909327
:100A00000B0280930A0282E290E0909309028093A5
:100A1000080260E070E0CB01089584E290E09093DA
:100A20000B0280930A0285E290E090930902809382
:100A3000080260E070E0CB01089587E290E09093B7
:100A40000B0280930A0288E290E09093090280935F
:100A5000080260E070E0CB0108958AE290E0909394
:100A60000B0280930A028BE290E09093090280933C
:100A7000080260E070E0CB0108958DE290E0909371
:100A80000B0280930A028EE290E090930902809319
:100A9000080260E070E0CB01089580E390E090935D
:100AA0000B0280930A0281E390E090930902809305
:100AB000080260E070E0CB01089583E390E090933A
:100AC0000B0280930A0284E390E0909309028093E2
:100AD000080260E070E0CB01089581E091E090931E
:100AE0000B0280930A0282E091E0909309028093C6
:100AF000080260E070E0CB01089584E091E09093FB
:100B00000B0280930A0285E091E0909309028093A2
:100B1000080260E070E0CB01089587E091E09093D7
:100B20000B0280930A0288E091E09093090280937F
:100B3000080260E070E0CB0108958AE091E09093B4
:100B40000B0280930A028BE091E09093090280935C
:100B5000080260E070E0CB01089562E070E080E0A0
:100B600090E0089560E070E0CB010895CF93DF93AB
:100B7000C82FD62F34DF672B682B692BC1F4D830F0
:100B8000D8F4D63010F0C630E1F041E06D2F8091FE
:100B90000A0290910B0264DB40E06D2F8091080205
:100BA00090910902C1DB60E070E0CB010EC062E011
:100BB00070E080E090E009C063E070E080E090E0E9
:100BC00004C063E070E080E090E0DF91CF91089591
:100BD000CF93DF93C82FD62F02DF672B682B692BAB
:100BE00081F4D83098F4D63010F0C630A1F06D2FD3
:100BF0008091080290910902FBDB60E070E0CB017C
:100C00000EC062E070E080E090E009C063E070E058
:100C100080E090E004C063E070E080E090E0DF916D
:100C2000CF910895CF93DF93C82FD62FD8DE672BAF
:100C3000682B692B89F4D830A0F4D63010F0C63078
:100C4000A9F040E06D2F80910802909109026CDBC1
:100C500060E070E0CB010EC062E070E080E090E008
:100C600009C063E070E080E090E004C063E070E001
:100C700080E090E0DF91CF910895811103C067E09B
:100C800081E0A6CF0895811134C0653091F54111FE
:100C900030C067E081E09CDF2FEF89E698E12150CA
:100CA00080409040E1F700C0000067E081E090DF05
:100CB0002FEF89E698E1215080409040E1F700C095
:100CC000000067E081E084DF2FEF89E698E12150A2
:100CD00080409040E1F700C0000067E081E078DFED
:100CE0002FEF89E698E1215080409040E1F700C065
:100CF00000000895CF93DF9300D01F921F92CDB7CD
:100D0000DEB795E0E0E0F2E0DE01119601900D9291
:100D10009A95E1F7833051F4611108C0411106C082
:100D200045E0BE016F5F7F4F80E02AD10F900F90AA
:100D30000F900F900F90DF91CF91089560E083E0C6
:100D400026DA8AE796E07DDA67E081E00FDF67E088
:100D500081E068DF02E028E040E855E260E070E012
:100D600080E06CD26DE376E083E496E001D0FFCFC3
:100D7000009779F06115710589F090931C028093BA
:100D80001B0270931A026093190260E070E0CB01BD
:100D9000089568E070E080E090E0089568E070E019
:100DA00080E090E00895843008F0AAC0813081F19D
:100DB00038F0823009F454C0833009F479C0A5C0FA
:100DC00080EC90E0909318028093170281EC90E001
:100DD000909316028093150282EC90E09093140297
:100DE0008093130284EC90E090931202809311029E
:100DF00085EC90E09093100280930F0286EC90E0D7
:100E000090930E0280930D0260E070E0CB01089594
:100E100088EC90E0909318028093170289EC90E0A0
:100E200090931602809315028AEC90E0909314023E
:100E3000809313028CEC90E0909312028093110245
:100E40008DEC90E09093100280930F028EEC90E076
:100E500090930E0280930D0260E070E0CB01089544
:100E600080ED90E0909318028093170281ED90E05E
:100E7000909316028093150282ED90E090931402F5
:100E80008093130284ED90E09093120280931102FC
:100E900085ED90E09093100280930F0286ED90E034
:100EA00090930E0280930D0260E070E0CB010895F4
:100EB00080E391E0909318028093170281E391E020
:100EC000909316028093150282E391E090931402AE
:100ED0008093130284E391E09093120280931102B5
:100EE00085E391E09093100280930F0286E391E0F6
:100EF00090930E0280930D0260E070E0CB010895A4
:100F000065E070E080E090E0089560E070E0CB0183
:100F10000895F89448DFE0911F0280912002E817BD
:100F200000F580910C02882349F1A0911702B0913D
:100F300018028C9185FF22C0A0910D02B0910E0283
:100F400081E08E0F80931F02F0E0EF5DFD4F808106
:100F50008C93E0911702F091180280818F7D80833D
:100F60000DC0E8130BC080910C02882339F0E0918A
:100F70001502F091160280818F7D80837894089508
:100F80000F931F93CF93DF93D82F8B01C42F411161
:100F90000CC0E0911902F0911A02309761F1199595
:100FA0006BE070E080E090E039C080910C0281112C
:100FB00027C08D2FF8DE672B682B692B31F5C531E3
:100FC00048F581E080930C024C2F50E0B80181E29B
:100FD00092E00ED4C093200210921F028D2F99DF51
:100FE000E0911502F091160280818066808360E0B6
:100FF00070E0CB0113C06BE070E080E090E00EC0C9
:1010000069E070E080E090E009C065E070E080E0B9
:1010100090E004C06AE070E080E090E0DF91CF9162
:101020001F910F910895603629E07207810591059F
:10103000A1F0603C22E172078105910589F06038DA
:1010400025E272078105910571F061157B448105E8
:101050009105D9F483E390E008C080EA91E005C0EF
:101060008FEC90E002C087E690E0E0911102F091F1
:1010700012028083E0910F02F091100288279F7086
:10108000908360E070E0CB01089566E070E080E05E
:1010900090E008959BEF980F943008F089C0863057
:1010A00019F118F4853039F06AC08730B1F1883011
:1010B00009F44CC064C0E0911502F09116028081E1
:1010C0008B7F8083E0911302F091140280818B7FEB
:1010D0008083E0911302F091140280818D7F8083E0
:1010E00060E070E0CB010895E0911502F0911602E6
:1010F00080818B7F8083E0911302F09114028081C4
:101100008B7F8083E0911302F091140280818260D2
:10111000808360E070E0CB010895E0911502F091CA
:10112000160280818B7F8083E0911302F09114027C
:10113000808184608083E0911302F09114028081A9
:101140008D7F808360E070E0CB010895E09115020F
:10115000F091160280818B7F8083E0911302F091E1
:101160001402808184608083E0911302F091140264
:1011700080818260808360E070E0CB010895E0911F
:101180001502F091160280818B7F8083E09113021B
:10119000F0911402808184608083E0911302F091C9
:1011A000140280818260808360E070E0CB0108954A
:1011B00067E070E080E090E00895813009F188F008
:1011C000823069F5E0911302F091140280818F7DE5
:1011D0008083E0911302F091140280818F7E8083DE
:1011E0000895E0911302F09114028081806280835F
:1011F000E0911302F091140280818F7E8083089524
:10120000E0911302F0911402808180628083E0916A
:101210001302F09114028081806180830895E0912F
:101220001302F091140280818F7D8083E09113027C
:10123000F091140280818F7E80830895CF92DF9297
:10124000EF92FF920F93CF936A017B01C22F7894A4
:10125000AADD672B682B692B09F04DC0C701B601C9
:10126000E2DE672B682B692B09F04AC08C2F12DF56
:10127000672B682B692B09F048C0802F9EDFE09117
:101280001302F091140280818F738083E091130226
:10129000F09114028081877F8083E0911302F091A6
:1012A000140280818E7F8083E0911702F0911802F2
:1012B000808180648083E0911702F0911802808120
:1012C000807E8083E0911502F09116028081806813
:1012D0008083E0911502F091160280818F798083DE
:1012E000E0911502F091160280818861808360E0B0
:1012F00070E0CB010EC065E070E080E090E009C0D6
:1013000066E070E080E090E004C067E070E080E0BC
:1013100090E0CF910F91FF90EF90DF90CF900895E4
:101320001F920F920FB60F9211240BB60F922F93AC
:101330003F934F935F936F937F938F939F93AF935D
:10134000BF93EF93FF938091C00041E082FF40E0A4
:10135000E0911B02F0911C02309721F06091C600D1
:1013600080E01995FF91EF91BF91AF919F918F917F
:101370007F916F915F914F913F912F910F900BBE95
:101380000F900FBE0F901F9018951F920F920FB6DF
:101390000F9211240BB60F922F933F934F935F93AD
:1013A0006F937F938F939F93AF93BF93EF93FF932D
:1013B0008091C80041E082FF40E0E0911B02F09183
:1013C0001C02309721F06091CE0081E01995FF91C9
:1013D000EF91BF91AF919F918F917F916F915F91AD
:1013E0004F913F912F910F900BBE0F900FBE0F901A
:1013F0001F9018951F920F920FB60F9211240BB6E3
:101400000F922F933F934F935F936F937F938F939D
:101410009F93AF93BF93EF93FF938091D00041E0F0
:1014200082FF40E0E0911B02F0911C02309721F016
:101430006091D60082E01995FF91EF91BF91AF9135
:101440009F918F917F916F915F914F913F912F91DC
:101450000F900BBE0F900FBE0F901F9018951F920C
:101460000F920FB60F9211240BB60F922F933F934A
:101470004F935F936F937F938F939F93AF93BF939C
:10148000EF93FF938091300141E082FF40E0E091D3
:101490001B02F0911C02309721F06091360183E02D
:1014A0001995FF91EF91BF91AF919F918F917F918E
:1014B0006F915F914F913F912F910F900BBE0F90C5
:1014C0000FBE0F901F9018951F920F920FB60F929C
:1014D00011240BB60F922F933F934F935F936F930B
:1014E0007F938F939F93AF93BF93EF93FF9310924C
:1014F0001F0210920C0280E056DCE0911502F09180
:10150000160280818F7B8083E0911902F0911A028C
:10151000309711F080E01995FF91EF91BF91AF9155
:101520009F918F917F916F915F914F913F912F91FB
:101530000F900BBE0F900FBE0F901F9018951F922B
:101540000F920FB60F9211240BB60F922F933F9369
:101550004F935F936F937F938F939F93AF93BF93BB
:10156000EF93FF9310921F0210920C0281E01BDC9C
:10157000E0911502F091160280818F7B8083E091CB
:101580001902F0911A02309711F081E01995FF913C
:10159000EF91BF91AF919F918F917F916F915F91EB
:1015A0004F913F912F910F900BBE0F900FBE0F9058
:1015B0001F9018951F920F920FB60F9211240BB621
:1015C0000F922F933F934F935F936F937F938F93DC
:1015D0009F93AF93BF93EF93FF9310921F021092CC
:1015E0000C0282E0E0DBE0911502F09116028081AE
:1015F0008F7B8083E0911902F0911A02309711F0ED
:1016000082E01995FF91EF91BF91AF919F918F91DA
:101610007F916F915F914F913F912F910F900BBEF2
:101620000F900FBE0F901F9018951F920F920FB63C
:101630000F9211240BB60F922F933F934F935F930A
:101640006F937F938F939F93AF93BF93EF93FF938A
:1016500010921F0210920C0283E0A5DBE0911502AC
:10166000F091160280818F7B8083E0911902F091C6
:101670001A02309711F083E01995FF91EF91BF9115
:10168000AF919F918F917F916F915F914F913F911A
:101690002F910F900BBE0F900FBE0F901F901895BB
:1016A0001F920F920FB60F9211240BB60F922F9329
:1016B0003F934F935F936F937F938F939F93AF93DA
:1016C000BF93EF93FF9380E024DCFF91EF91BF91F4
:1016D000AF919F918F917F916F915F914F913F91CA
:1016E0002F910F900BBE0F900FBE0F901F9018956B
:1016F0001F920F920FB60F9211240BB60F922F93D9
:101700003F934F935F936F937F938F939F93AF9389
:10171000BF93EF93FF9381E0FCDBFF91EF91BF91CB
:10172000AF919F918F917F916F915F914F913F9179
:101730002F910F900BBE0F900FBE0F901F9018951A
:101740001F920F920FB60F9211240BB60F922F9388
:101750003F934F935F936F937F938F939F93AF9339
:10176000BF93EF93FF9382E0D4DBFF91EF91BF91A2
:10177000AF919F918F917F916F915F914F913F9129
:101780002F910F900BBE0F900FBE0F901F901895CA
:101790001F920F920FB60F9211240BB60F922F9338
:1017A0003F934F935F936F937F938F939F93AF93E9
:1017B000BF93EF93FF9383E0ACDBFF91EF91BF9179
:1017C000AF919F918F917F916F915F914F913F91D9
:1017D0002F910F900BBE0F900FBE0F901F9018957A
:1017E000EE0FFF1F881F8BBF0790F691E02D199415
:1017F000FB01DC0102C001900D9241505040D8F72E
:061800000895F894FFCFEB
:061806000305060A1800AC
:00000001FF
