:1000000084C000008CC30000B8C30000E4C300003B
:1000100010C400003CC4000068C4000094C4000088
:10002000C0C4000092C0000090C000008EC000005C
:100030008CC000008AC0000088C0000086C000009C
:1000400084C0000082C0000080C000007EC00000AC
:100050007CC000007AC0000078C0000076C00000BC
:1000600074C000000C94A20B0C94620D0C94760CDE
:100070006CC000006AC0000068C0000066C00000DC
:1000800064C0000062C0000060C000005EC00000EC
:100090000C94D70B0C948A0D0C94B10C56C0000034
:1000A00054C0000052C0000050C000004EC000000C
:1000B0004CC000004AC0000048C0000046C000001C
:1000C00044C0000042C0000040C000000C940C0C72
:1000D0000C94B20D0C94EC0C0C94410C0C94DA0DB5
:1000E0000C94270D0E051E052E053E054E055E05DA
:1000F0006E057E058E059E05AE05DA07E507FA0753
:100100000F08240841087D089E0811241FBECFEF68
:10011000D1E2DEBFCDBF00E00CBF12E0A0E0B2E054
:10012000EAE2FCE100E00BBF02C007900D92A630AE
:10013000B107D9F722E0A6E0B2E001C01D92A536D2
:10014000B207E1F728D60C94130E5ACFCF93C82FDD
:100150008430B0F4682F89E290E0ADD1E0912302C1
:10016000F0912402309709F1882329F041E06C2FA7
:1001700083E019951AC040E06C2F83E0199515C0F3
:10018000682F8CE290E097D1E0912302F091240255
:10019000309759F0882329F041E06C2F84E01995BD
:1001A00004C040E06C2F84E01995CF910895CF935F
:1001B00010922402109223029DEF980F923050F07B
:1001C000833088F18550863098F162E070E080E0FD
:1001D00090E045C0683088F5C62F833089F46430DC
:1001E00088F526EA30E041E08BE290E06FD140E014
:1001F0006C2F8AE290E044D060E070E0CB012FC029
:10020000843029F5643038F126EA30E041E08EE2AE
:1002100090E05CD140E06C2F8DE290E031D060E066
:1002200070E0CB011CC064E070E080E090E017C09B
:1002300064E070E080E090E012C063E070E080E095
:1002400090E00DC064E070E080E090E008C060E005
:1002500070E0CB0104C064E070E080E090E0CF91FA
:100260000895009741F0909324028093230260E068
:1002700070E0CB0108956CE070E080E090E00895BC
:10028000FC01892B09F451C0908181B1981761F16B
:10029000908184B1981741F1908187B1981721F12D
:1002A00090818AB1981701F190818DB19817E1F092
:1002B000908180B39817C1F0908183B39817A1F013
:1002C000908180910101981779F0908180910401CB
:1002D000981751F0908180910701981729F090812B
:1002E00080910A01981326C0683048F5442371F0C4
:1002F000208181E090E002C0880F991F6A95E2F7A3
:10030000822B808360E070E0CB010895208181E042
:1003100090E002C0880F991F6A95E2F780958223CA
:10032000808360E070E0CB01089561E070E080E0E0
:1003300090E0089562E070E080E090E0089563E06E
:1003400070E080E090E00895FC01892B09F451C031
:10035000908182B1981761F1908185B1981741F130
:10036000908188B1981721F190818BB1981701F194
:1003700090818EB19817E1F0908181B39817C1F008
:10038000908184B39817A1F0908180910201981711
:1003900079F0908180910501981751F090818091BA
:1003A0000801981729F0908180910B01981326C0BD
:1003B000683048F5442371F0208181E090E002C06C
:1003C000880F991F6A95E2F7822B808360E070E0C6
:1003D000CB010895208181E090E002C0880F991F31
:1003E0006A95E2F780958223808360E070E0CB011C
:1003F000089561E070E080E090E0089562E070E0D0
:1004000080E090E0089563E070E080E090E008957F
:10041000FC01892B09F440C0908182B1981761F1E9
:10042000908185B1981741F1908188B1981721F199
:1004300090818BB1981701F190818EB19817E1F0FE
:10044000908181B39817C1F0908184B39817A1F07F
:10045000908180910201981779F090818091050137
:10046000981751F0908180910801981729F0908198
:1004700080910B01981315C06830C0F4208181E091
:1004800090E002C0880F991F6A95E2F78227808367
:1004900060E070E0CB01089561E070E080E090E002
:1004A000089562E070E080E090E0089563E070E01D
:1004B00080E090E00895FC01208181E090E002C09E
:1004C000880F991F6A95E2F782230895CF93DF93EF
:1004D000FC01892B09F4D6C090818BB19817D1F11A
:1004E00090818EB19817B1F1908182B1981709F47B
:1004F000CEC0908185B1981709F4CEC0908188B1A3
:10050000981709F4CEC0908181B3981709F4CEC032
:10051000908184B3981709F4CEC090818091020134
:10052000981709F4CDC0908180910501981709F4BE
:10053000CCC0908180910801981709F4CBC09081BC
:1005400080910B01981709F4CAC062E070E080E066
:1005500090E0E2C0683008F0C7C090818BB198137A
:1005600003C0643068F0CFC090818EB19813C1C0D1
:10057000643008F4C3C08CEF860FEAE6F0E003C0F5
:10058000862FE9E6F0E04130F9F030F04230B1F189
:10059000433009F44EC063C0708190E0880F991F0A
:1005A000DC01119641E050E0EA0102C0CC0FDD1FF2
:1005B000AA95E2F702C0440F551F8A95E2F74C2B2B
:1005C0004095472340834BC0708190E0880F991F6E
:1005D00041E050E0DA01082E02C0AA0FBB1F0A94C6
:1005E000E2F7A72BA0837081019602C0440F551F2C
:1005F0008A95E2F740954723408331C0708190E0AF
:10060000880F991FDC01119641E050E0EA0102C019
:10061000CC0FDD1FAA95E2F7DE01A72BA083908106
:1006200002C0440F551F8A95E2F740954923408345
:1006300016C0708190E0880F991FDC01119641E08F
:1006400050E0EA0102C0CC0FDD1FAA95E2F702C01C
:10065000440F551F8A95E2F7472B4C2B40834DB32F
:1006600081E090E002C0880F991F6A95E2F7842B21
:100670008DBB7894309307022093060260E070E00F
:10068000CB014AC061E070E080E090E045C064E0EA
:1006900070E080E090E040C064E070E080E090E0D6
:1006A0003BC064E070E080E090E036C064E070E061
:1006B00080E090E031C064E070E080E090E02CC029
:1006C00064E070E080E090E027C064E070E080E0EB
:1006D00090E022C064E070E080E090E01DC064E043
:1006E00070E080E090E018C063E070E080E090E0AF
:1006F00013C064E070E080E090E00EC064E070E061
:1007000080E090E009C090818EB1981709F433CF52
:1007100064E070E080E090E0DF91CF9108951F9257
:100720000F920FB60F9211240BB60F922F933F9397
:100730004F935F936F937F938F939F93AF93BF93E9
:10074000EF93FF93E0910602F0910702309711F0CA
:1007500080E01995FF91EF91BF91AF919F918F919B
:100760007F916F915F914F913F912F910F900BBEB1
:100770000F900FBE0F901F9018951F920F920FB6FB
:100780000F9211240BB60F922F933F934F935F93C9
:100790006F937F938F939F93AF93BF93EF93FF9349
:1007A000E0910602F0910702309711F081E019956F
:1007B000FF91EF91BF91AF919F918F917F916F9139
:1007C0005F914F913F912F910F900BBE0F900FBEF5
:1007D0000F901F9018951F920F920FB60F92112431
:1007E0000BB60F922F933F934F935F936F937F932B
:1007F0008F939F93AF93BF93EF93FF93E091060284
:10080000F0910702309711F082E01995FF91EF9176
:10081000BF91AF919F918F917F916F915F914F9118
:100820003F912F910F900BBE0F900FBE0F901F9016
:1008300018951F920F920FB60F9211240BB60F92BC
:100840002F933F934F935F936F937F938F939F93D8
:10085000AF93BF93EF93FF93E0910602F0910702ED
:10086000309711F083E01995FF91EF91BF91AF910F
:100870009F918F917F916F915F914F913F912F91B8
:100880000F900BBE0F900FBE0F901F9018951F92E8
:100890000F920FB60F9211240BB60F922F933F9326
:1008A0004F935F936F937F938F939F93AF93BF9378
:1008B000EF93FF93E0910602F0910702309711F059
:1008C00084E01995FF91EF91BF91AF919F918F9126
:1008D0007F916F915F914F913F912F910F900BBE40
:1008E0000F900FBE0F901F9018951F920F920FB68A
:1008F0000F9211240BB60F922F933F934F935F9358
:100900006F937F938F939F93AF93BF93EF93FF93D7
:10091000E0910602F0910702309711F085E01995F9
:10092000FF91EF91BF91AF919F918F917F916F91C7
:100930005F914F913F912F910F900BBE0F900FBE83
:100940000F901F9018951F920F920FB60F921124BF
:100950000BB60F922F933F934F935F936F937F93B9
:100960008F939F93AF93BF93EF93FF93E091060212
:10097000F0910702309711F086E01995FF91EF9101
:10098000BF91AF919F918F917F916F915F914F91A7
:100990003F912F910F900BBE0F900FBE0F901F90A5
:1009A00018951F920F920FB60F9211240BB60F924B
:1009B0002F933F934F935F936F937F938F939F9367
:1009C000AF93BF93EF93FF93E0910602F09107027C
:1009D000309711F087E01995FF91EF91BF91AF919A
:1009E0009F918F917F916F915F914F913F912F9147
:1009F0000F900BBE0F900FBE0F901F9018958B306D
:100A000008F0BCC090E08B30910508F0BCC0FC0140
:100A10008827EE58FF4F8F4F0C94020E81E290E032
:100A200090930B0280930A0282E290E09093090275
:100A30008093080260E070E0CB01089584E290E0CA
:100A400090930B0280930A0285E290E09093090252
:100A50008093080260E070E0CB01089587E290E0A7
:100A600090930B0280930A0288E290E0909309022F
:100A70008093080260E070E0CB0108958AE290E084
:100A800090930B0280930A028BE290E0909309020C
:100A90008093080260E070E0CB0108958DE290E061
:100AA00090930B0280930A028EE290E090930902E9
:100AB0008093080260E070E0CB01089580E390E04D
:100AC00090930B0280930A0281E390E090930902D5
:100AD0008093080260E070E0CB01089583E390E02A
:100AE00090930B0280930A0284E390E090930902B2
:100AF0008093080260E070E0CB01089581E091E00E
:100B000090930B0280930A0282E091E09093090295
:100B10008093080260E070E0CB01089584E091E0EA
:100B200090930B0280930A0285E091E09093090272
:100B30008093080260E070E0CB01089587E091E0C7
:100B400090930B0280930A0288E091E0909309024F
:100B50008093080260E070E0CB0108958AE091E0A4
:100B600090930B0280930A028BE091E0909309022C
:100B70008093080260E070E0CB01089562E070E0CD
:100B800080E090E0089560E070E0CB010895CF939D
:100B9000DF93C82FD62F33DF672B682B692BC1F467
:100BA000D830D8F4D63010F0C630E1F041E06D2FE7
:100BB00080910A0290910B0263DB40E06D2F8091DF
:100BC000080290910902C0DB60E070E0CB010EC02A
:100BD00062E070E080E090E009C063E070E080E0F7
:100BE00090E004C063E070E080E090E0DF91CF919E
:100BF0000895CF93DF93C82FD62F01DF672B682B83
:100C0000692B81F4D83098F4D63010F0C630A1F0BA
:100C10006D2F8091080290910902FADB60E070E08C
:100C2000CB010EC062E070E080E090E009C063E0BC
:100C300070E080E090E004C063E070E080E090E06D
:100C4000DF91CF910895CF93DF93C82FD62FD7DEB2
:100C5000672B682B692B89F4D830A0F4D63010F0BC
:100C6000C630A9F040E06D2F8091080290910902F2
:100C70006BDB60E070E0CB010EC062E070E080E012
:100C800090E009C063E070E080E090E004C063E0C1
:100C900070E080E090E0DF91CF910895811103C072
:100CA00067E081E0A6CF0895811143C0411141C0A2
:100CB000FB018181833009F03CC082818530C9F518
:100CC00083818630B1F584818A3099F585818831B8
:100CD00081F567E081E08DDFFFEF29E688E1F150E3
:100CE00020408040E1F700C0000067E081E081DF44
:100CF0009FEFE9E6F8E19150E040F040E1F700C0F5
:100D0000000067E081E075DF2FEF89E698E1215070
:100D100080409040E1F700C0000067E081E069DFBB
:100D2000EFEFF9E628E1E150F0402040E1F700C0A4
:100D300000000895CF93DF93CDB7DEB763970FB66A
:100D4000F894DEBF0FBECDBF95E0E0E0F2E0DE013B
:100D50001F9601900D929A95E1F795E09983FE0117
:100D60003F96DE01129601900D929A95E1F783303D
:100D700049F4611107C0411105C0BE016F5F7F4F8B
:100D800080E0B0D063960FB6F894DEBF0FBECDBF43
:100D9000DF91CF910895CF93DF9300D01F92CDB70D
:100DA000DEB760E083E003DA8AE996E05ADA8EE49F
:100DB00096E09A83898384E596E09C838B83BE01C9
:100DC0006F5F7F4F80E016D067E081E0E0DE67E094
:100DD00081E039DFFFCFE82FF0E0E95DFD4F1082C1
:100DE000E0910D02F0910E0241E050E060E070E011
:100DF00019950895FF920F93CF93DF93F82EEB018F
:100E000002E028E040E855E260E070E029D4611596
:100E1000710581059105A1F588819981892B39F1A9
:100E20008A819B81009741F1EDE0F2E09383828318
:100E300088819981918380836BEE76E08BEC97E0DB
:100E4000A9D16115710581059105D1F4EF2DF0E06F
:100E5000E95DFD4F10821092400210922B02ECE2ED
:100E6000F2E022E0208321832283238309C06CE007
:100E700070E080E090E004C06CE070E080E090E022
:100E8000DF91CF910F91FF9008957FEF760F66234A
:100E900029F1E82FF92F4FEF5FEF21912527322F0E
:100EA00032953F70922F9327292F30E0542F4427FB
:100EB00042275327C901982F88279295907F48276A
:100EC0005927220F331F22953295307F3227207FFA
:100ED000322742275327715000F702C04FEF5FEFD0
:100EE000CA010895EF92FF920F931F93CF93DF9360
:100EF000282F30E0F901E95DFD4F9081913009F430
:100F00003FC091E0F901E95DFD4F9083843048F0E6
:100F1000F901E95DFD4F108265E070E080E090E04E
:100F200033C0FB0190819E3048F0F901E95DFD4F2F
:100F300010826DE070E080E090E026C08B01C82F49
:100F4000909330027B01FFEFEF1AFF0AFB01408113
:100F500050E0B70181E392E05DD6F801D0816D2FBA
:100F6000C70193DFED2FF0E0EF5CFD4F91838083AD
:100F7000F8014081495F6CE272E08C2F13D204C00B
:100F800069E070E080E090E0DF91CF911F910F91D8
:100F9000FF90EF900895262F4091400250E0483096
:100FA000510508F0F6C0982FFA018827E358FF4F43
:100FB0008F4F28C6223009F0ECC090931102109296
:100FC0000C0281E0809340020895223071F48091F8
:100FD0001102981304C082E0809340020895909318
:100FE000110281E080934002089510921102109244
:100FF00040020895223071F480911102981304C0C8
:1010000083E08093400208959093110281E08093E1
:101010004002089510921102109240020895223069
:1010200071F480911102981304C084E0809340020F
:1010300008959093110281E08093400208951092E8
:1010400011021092400208958FEF820F8C3060F4ED
:1010500080911102981308C010922B022093410234
:1010600085E0809340020895223031F4909311027C
:1010700081E0809340020895109211021092400284
:10108000089580912B02E82FF0E060914102462FF5
:1010900050E041505109E417F5075CF4309111021A
:1010A00093131EC08F5F80932B02EF5BFD4F218354
:1010B0000895E417F507A1F480911102981310C068
:1010C000EF5BFD4F218310922B0286E0809340025C
:1010D00082E492E0DADE909326028093250208955E
:1010E000223031F49093110281E080934002089500
:1010F00010921102109240020895809111029813EB
:1011000010C030E08091250290912602992728177F
:10111000390719F081E080930C0287E08093400248
:101120000895223031F49093110281E080934002BF
:1011300008951092110210924002089580911102B8
:1011400098131BC030E04091260250E02417350769
:1011500019F081E080930C0210924002E0910F029E
:10116000F0911002309731F040910C0261E472E08E
:10117000892F199510920C020895223031F4909322
:10118000110281E0809340020895109211021092A2
:1011900040020895009779F06115710589F09093E8
:1011A0002202809321027093200260931F0260E06C
:1011B00070E0CB01089568E070E080E090E0089571
:1011C00068E070E080E090E00895843008F0AAC004
:1011D000813081F138F0823009F454C0833009F451
:1011E00079C0A5C080EC90E090931E0280931D0210
:1011F00081EC90E090931C0280931B0282EC90E0C3
:1012000090931A028093190284EC90E09093180254
:101210008093170285EC90E090931602809315025C
:1012200086EC90E0909314028093130260E070E0EB
:10123000CB01089588EC90E090931E0280931D02EC
:1012400089EC90E090931C0280931B028AEC90E062
:1012500090931A02809319028CEC90E090931802FC
:10126000809317028DEC90E0909316028093150204
:101270008EEC90E0909314028093130260E070E093
:10128000CB01089580ED90E090931E0280931D02A3
:1012900081ED90E090931C0280931B0282ED90E020
:1012A00090931A028093190284ED90E090931802B3
:1012B0008093170285ED90E09093160280931502BB
:1012C00086ED90E0909314028093130260E070E04A
:1012D000CB01089580E391E090931E0280931D025C
:1012E00081E391E090931C0280931B0282E391E0E2
:1012F00090931A028093190284E391E0909318026C
:101300008093170285E391E0909316028093150273
:1013100086E391E0909314028093130260E070E002
:10132000CB01089565E070E080E090E0089560E012
:1013300070E0CB010895F89448DFE0914F0280916E
:101340005002E81700F580911202882349F1A0911C
:101350001D02B0911E028C9185FF22C0A091130244
:10136000B091140281E08E0F80934F02F0E0EF5AAB
:10137000FD4F80818C93E0911D02F0911E028081CF
:101380008F7D80830DC0E8130BC0809112028823EB
:1013900039F0E0911B02F0911C0280818F7D8083E7
:1013A000789408950F931F93CF93DF93D82F8B01D9
:1013B000C42F41110CC0E0911F02F0912002309720
:1013C00061F119956BE070E080E090E039C08091A8
:1013D0001202811127C08D2FF8DE672B682B692B35
:1013E00031F5C53148F581E0809312024C2F50E071
:1013F000B80181E592E00ED4C093500210924F02E2
:101400008D2F99DFE0911B02F0911C028081806694
:10141000808360E070E0CB0113C06BE070E080E09F
:1014200090E00EC069E070E080E090E009C065E007
:1014300070E080E090E004C06AE070E080E090E05E
:10144000DF91CF911F910F910895603629E07207C7
:1014500081059105A1F0603C22E1720781059105AB
:1014600089F0603825E272078105910571F06115F8
:101470007B4481059105D9F483E390E008C080EABC
:1014800091E005C08FEC90E002C087E690E0E0912B
:101490001702F09118028083E0911502F091160274
:1014A00088279F70908360E070E0CB01089566E02C
:1014B00070E080E090E008959BEF980F943008F082
:1014C00089C0863019F118F4853039F06AC0873048
:1014D000B1F1883009F44CC064C0E0911B02F09176
:1014E0001C0280818B7F8083E0911902F0911A02A7
:1014F00080818B7F8083E0911902F0911A028081B4
:101500008D7F808360E070E0CB010895E0911B0245
:10151000F0911C0280818B7F8083E0911902F09111
:101520001A0280818B7F8083E0911902F0911A0268
:1015300080818260808360E070E0CB010895E0915B
:101540001B02F0911C0280818B7F8083E091190245
:10155000F0911A02808184608083E0911902F091F9
:101560001A0280818D7F808360E070E0CB01089556
:10157000E0911B02F0911C0280818B7F8083E091BF
:101580001902F0911A02808184608083E09119022F
:10159000F0911A0280818260808360E070E0CB016C
:1015A0000895E0911B02F0911C0280818B7F808363
:1015B000E0911902F0911A02808184608083E091A9
:1015C0001902F0911A0280818260808360E070E0ED
:1015D000CB01089567E070E080E090E008958130ED
:1015E00009F188F0823069F5E0911902F0911A0250
:1015F00080818F7D8083E0911902F0911A028081B1
:101600008F7E80830895E0911902F0911A02808103
:1016100080628083E0911902F0911A0280818F7EAE
:1016200080830895E0911902F0911A02808180620E
:101630008083E0911902F0911A0280818061808399
:101640000895E0911902F0911A0280818F7D8083C4
:10165000E0911902F0911A0280818F7E80830895B3
:10166000CF92DF92EF92FF920F93CF936A017B01AB
:10167000C22F7894AADD672B682B692B09F04DC027
:10168000C701B601E2DE672B682B692B09F04AC05F
:101690008C2F12DF672B682B692B09F048C0802F35
:1016A0009EDFE0911902F0911A0280818F7380838E
:1016B000E0911902F0911A028081877F8083E09186
:1016C0001902F0911A0280818E7F8083E0911D02C1
:1016D000F0911E02808180648083E0911D02F09170
:1016E0001E028081807E8083E0911B02F0911C02AB
:1016F000808180688083E0911B02F0911C028081D0
:101700008F798083E0911B02F0911C0280818861B7
:10171000808360E070E0CB010EC065E070E080E0A7
:1017200090E009C066E070E080E090E004C067E00F
:1017300070E080E090E0CF910F91FF90EF90DF900C
:10174000CF9008951F920F920FB60F9211240BB6EF
:101750000F922F933F934F935F936F937F938F934A
:101760009F93AF93BF93EF93FF938091C00041E0AD
:1017700082FF40E0E0912102F0912202309721F0B7
:101780006091C60080E01995FF91EF91BF91AF91F4
:101790009F918F917F916F915F914F913F912F9189
:1017A0000F900BBE0F900FBE0F901F9018951F92B9
:1017B0000F920FB60F9211240BB60F922F933F93F7
:1017C0004F935F936F937F938F939F93AF93BF9349
:1017D000EF93FF938091C80041E082FF40E0E091E9
:1017E0002102F0912202309721F06091CE0081E039
:1017F0001995FF91EF91BF91AF919F918F917F913B
:101800006F915F914F913F912F910F900BBE0F9071
:101810000FBE0F901F9018951F920F920FB60F9248
:1018200011240BB60F922F933F934F935F936F93B7
:101830007F938F939F93AF93BF93EF93FF93809189
:10184000D00041E082FF40E0E0912102F0912202CD
:10185000309721F06091D60082E01995FF91EF91C9
:10186000BF91AF919F918F917F916F915F914F91B8
:101870003F912F910F900BBE0F900FBE0F901F90B6
:1018800018951F920F920FB60F9211240BB60F925C
:101890002F933F934F935F936F937F938F939F9378
:1018A000AF93BF93EF93FF938091300141E082FFAC
:1018B00040E0E0912102F0912202309721F0609106
:1018C000360183E01995FF91EF91BF91AF919F9100
:1018D0008F917F916F915F914F913F912F910F90D9
:1018E0000BBE0F900FBE0F901F9018951F920F9276
:1018F0000FB60F9211240BB60F922F933F934F9375
:101900005F936F937F938F939F93AF93BF93EF9367
:10191000FF9310924F021092120280E056DCE09189
:101920001B02F0911C0280818F7B8083E0911F025B
:10193000F0912002309711F080E01995FF91EF911E
:10194000BF91AF919F918F917F916F915F914F91D7
:101950003F912F910F900BBE0F900FBE0F901F90D5
:1019600018951F920F920FB60F9211240BB60F927B
:101970002F933F934F935F936F937F938F939F9397
:10198000AF93BF93EF93FF9310924F021092120206
:1019900081E01BDCE0911B02F0911C0280818F7BB7
:1019A0008083E0911F02F0912002309711F081E0D6
:1019B0001995FF91EF91BF91AF919F918F917F9179
:1019C0006F915F914F913F912F910F900BBE0F90B0
:1019D0000FBE0F901F9018951F920F920FB60F9287
:1019E00011240BB60F922F933F934F935F936F93F6
:1019F0007F938F939F93AF93BF93EF93FF93109237
:101A00004F021092120282E0E0DBE0911B02F091A3
:101A10001C0280818F7B8083E0911F02F091200265
:101A2000309711F082E01995FF91EF91BF91AF913E
:101A30009F918F917F916F915F914F913F912F91E6
:101A40000F900BBE0F900FBE0F901F9018951F9216
:101A50000F920FB60F9211240BB60F922F933F9354
:101A60004F935F936F937F938F939F93AF93BF93A6
:101A7000EF93FF9310924F021092120283E0A5DBC6
:101A8000E0911B02F0911C0280818F7B8083E091AA
:101A90001F02F0912002309711F083E01995FF9119
:101AA000EF91BF91AF919F918F917F916F915F91D6
:101AB0004F913F912F910F900BBE0F900FBE0F9043
:101AC0001F9018951F920F920FB60F9211240BB60C
:101AD0000F922F933F934F935F936F937F938F93C7
:101AE0009F93AF93BF93EF93FF9380E024DCFF912C
:101AF000EF91BF91AF919F918F917F916F915F9186
:101B00004F913F912F910F900BBE0F900FBE0F90F2
:101B10001F9018951F920F920FB60F9211240BB6BB
:101B20000F922F933F934F935F936F937F938F9376
:101B30009F93AF93BF93EF93FF9381E0FCDBFF9103
:101B4000EF91BF91AF919F918F917F916F915F9135
:101B50004F913F912F910F900BBE0F900FBE0F90A2
:101B60001F9018951F920F920FB60F9211240BB66B
:101B70000F922F933F934F935F936F937F938F9326
:101B80009F93AF93BF93EF93FF9382E0D4DBFF91DA
:101B9000EF91BF91AF919F918F917F916F915F91E5
:101BA0004F913F912F910F900BBE0F900FBE0F9052
:101BB0001F9018951F920F920FB60F9211240BB61B
:101BC0000F922F933F934F935F936F937F938F93D6
:101BD0009F93AF93BF93EF93FF9383E0ACDBFF91B1
:101BE000EF91BF91AF919F918F917F916F915F9195
:101BF0004F913F912F910F900BBE0F900FBE0F9002
:101C00001F901895EE0FFF1F881F8BBF0790F6914E
:101C1000E02D1994FB01DC0102C001900D924150AE
:0A1C20005040D8F70895F894FFCF64
:061C2A000305060A180084
:00000001FF
