S01700004D696E6950726F6A6563745A6F6E652E737265630D
S113000084C000008CC30000B8C30000E4C3000037
S113001010C400003CC4000068C4000094C4000084
S1130020C0C4000092C0000090C000008EC0000058
S11300308CC000008AC0000088C0000086C0000098
S113004084C0000082C0000080C000007EC00000A8
S11300507CC000007AC0000078C0000076C00000B8
S113006074C000000C94690B0C94290D0C943D0C85
S11300706CC000006AC0000068C0000066C00000D8
S113008064C0000062C0000060C000005EC00000E8
S11300900C949E0B0C94510D0C94780C56C00000DB
S11300A054C0000052C0000050C000004EC0000008
S11300B04CC000004AC0000048C0000046C0000018
S11300C044C0000042C0000040C000000C94D30BA8
S11300D00C94790D0C94B30C0C94080C0C94A10D95
S11300E00C94EE0C0E051E052E053E054E055E0510
S11300F06E057E058E059E05AE05A107AC07C107FA
S1130100D607EB0708084408650811241FBECFEF83
S1130110D1E2DEBFCDBF00E00CBF12E0A0E0B2E050
S1130120E8EBFBE100E00BBF02C007900D92A630A4
S1130130B107D9F722E0A6E0B2E001C01D92A536CE
S1130140B207E1F71AD60C94DA0D5ACFCF93C82F21
S11301508430B0F4682F89E290E0ADD1E0911F02C1
S1130160F0912002309709F1882329F041E06C2FA7
S113017083E019951AC040E06C2F83E0199515C0EF
S1130180682F8CE290E097D1E0911F02F091200259
S1130190309759F0882329F041E06C2F84E01995B9
S11301A004C040E06C2F84E01995CF910895CF935B
S11301B01092200210921F029DEF980F923050F07F
S11301C0833088F18550863098F162E070E080E0F9
S11301D090E045C0683088F5C62F833089F46430D8
S11301E088F526EA30E041E08BE290E06FD140E010
S11301F06C2F8AE290E044D060E070E0CB012FC025
S1130200843029F5643038F126EA30E041E08EE2AA
S113021090E05CD140E06C2F8DE290E031D060E062
S113022070E0CB011CC064E070E080E090E017C097
S113023064E070E080E090E012C063E070E080E091
S113024090E00DC064E070E080E090E008C060E001
S113025070E0CB0104C064E070E080E090E0CF91F6
S11302600895009741F09093200280931F0260E06C
S113027070E0CB0108956CE070E080E090E00895B8
S1130280FC01892B09F451C0908181B1981761F167
S1130290908184B1981741F1908187B1981721F129
S11302A090818AB1981701F190818DB19817E1F08E
S11302B0908180B39817C1F0908183B39817A1F00F
S11302C0908180910101981779F0908180910401C7
S11302D0981751F0908180910701981729F0908127
S11302E080910A01981326C0683048F5442371F0C0
S11302F0208181E090E002C0880F991F6A95E2F79F
S1130300822B808360E070E0CB010895208181E03E
S113031090E002C0880F991F6A95E2F780958223C6
S1130320808360E070E0CB01089561E070E080E0DC
S113033090E0089562E070E080E090E0089563E06A
S113034070E080E090E00895FC01892B09F451C02D
S1130350908182B1981761F1908185B1981741F12C
S1130360908188B1981721F190818BB1981701F190
S113037090818EB19817E1F0908181B39817C1F004
S1130380908184B39817A1F090818091020198170D
S113039079F0908180910501981751F090818091B6
S11303A00801981729F0908180910B01981326C0B9
S11303B0683048F5442371F0208181E090E002C068
S11303C0880F991F6A95E2F7822B808360E070E0C2
S11303D0CB010895208181E090E002C0880F991F2D
S11303E06A95E2F780958223808360E070E0CB0118
S11303F0089561E070E080E090E0089562E070E0CC
S113040080E090E0089563E070E080E090E008957B
S1130410FC01892B09F440C0908182B1981761F1E5
S1130420908185B1981741F1908188B1981721F195
S113043090818BB1981701F190818EB19817E1F0FA
S1130440908181B39817C1F0908184B39817A1F07B
S1130450908180910201981779F090818091050133
S1130460981751F0908180910801981729F0908194
S113047080910B01981315C06830C0F4208181E08D
S113048090E002C0880F991F6A95E2F78227808363
S113049060E070E0CB01089561E070E080E090E0FE
S11304A0089562E070E080E090E0089563E070E019
S11304B080E090E00895FC01208181E090E002C09A
S11304C0880F991F6A95E2F782230895CF93DF93EB
S11304D0FC01892B09F4D6C090818BB19817D1F116
S11304E090818EB19817B1F1908182B1981709F477
S11304F0CEC0908185B1981709F4CEC0908188B19F
S1130500981709F4CEC0908181B3981709F4CEC02E
S1130510908184B3981709F4CEC090818091020130
S1130520981709F4CDC0908180910501981709F4BA
S1130530CCC0908180910801981709F4CBC09081B8
S113054080910B01981709F4CAC062E070E080E062
S113055090E0E2C0683008F0C7C090818BB1981376
S113056003C0643068F0CFC090818EB19813C1C0CD
S1130570643008F4C3C08CEF860FEAE6F0E003C0F1
S1130580862FE9E6F0E04130F9F030F04230B1F185
S1130590433009F44EC063C0708190E0880F991F06
S11305A0DC01119641E050E0EA0102C0CC0FDD1FEE
S11305B0AA95E2F702C0440F551F8A95E2F74C2B27
S11305C04095472340834BC0708190E0880F991F6A
S11305D041E050E0DA01082E02C0AA0FBB1F0A94C2
S11305E0E2F7A72BA0837081019602C0440F551F28
S11305F08A95E2F740954723408331C0708190E0AB
S1130600880F991FDC01119641E050E0EA0102C015
S1130610CC0FDD1FAA95E2F7DE01A72BA083908102
S113062002C0440F551F8A95E2F740954923408341
S113063016C0708190E0880F991FDC01119641E08B
S113064050E0EA0102C0CC0FDD1FAA95E2F702C018
S1130650440F551F8A95E2F7472B4C2B40834DB32B
S113066081E090E002C0880F991F6A95E2F7842B1D
S11306708DBB7894309307022093060260E070E00B
S1130680CB014AC061E070E080E090E045C064E0E6
S113069070E080E090E040C064E070E080E090E0D2
S11306A03BC064E070E080E090E036C064E070E05D
S11306B080E090E031C064E070E080E090E02CC025
S11306C064E070E080E090E027C064E070E080E0E7
S11306D090E022C064E070E080E090E01DC064E03F
S11306E070E080E090E018C063E070E080E090E0AB
S11306F013C064E070E080E090E00EC064E070E05D
S113070080E090E009C090818EB1981709F433CF4E
S113071064E070E080E090E0DF91CF9108951F9253
S11307200F920FB60F9211240BB60F922F933F9393
S11307304F935F936F937F938F939F93AF93BF93E5
S1130740EF93FF93E0910602F0910702309711F0C6
S113075080E01995FF91EF91BF91AF919F918F9197
S11307607F916F915F914F913F912F910F900BBEAD
S11307700F900FBE0F901F9018951F920F920FB6F7
S11307800F9211240BB60F922F933F934F935F93C5
S11307906F937F938F939F93AF93BF93EF93FF9345
S11307A0E0910602F0910702309711F081E019956B
S11307B0FF91EF91BF91AF919F918F917F916F9135
S11307C05F914F913F912F910F900BBE0F900FBEF1
S11307D00F901F9018951F920F920FB60F9211242D
S11307E00BB60F922F933F934F935F936F937F9327
S11307F08F939F93AF93BF93EF93FF93E091060280
S1130800F0910702309711F082E01995FF91EF9172
S1130810BF91AF919F918F917F916F915F914F9114
S11308203F912F910F900BBE0F900FBE0F901F9012
S113083018951F920F920FB60F9211240BB60F92B8
S11308402F933F934F935F936F937F938F939F93D4
S1130850AF93BF93EF93FF93E0910602F0910702E9
S1130860309711F083E01995FF91EF91BF91AF910B
S11308709F918F917F916F915F914F913F912F91B4
S11308800F900BBE0F900FBE0F901F9018951F92E4
S11308900F920FB60F9211240BB60F922F933F9322
S11308A04F935F936F937F938F939F93AF93BF9374
S11308B0EF93FF93E0910602F0910702309711F055
S11308C084E01995FF91EF91BF91AF919F918F9122
S11308D07F916F915F914F913F912F910F900BBE3C
S11308E00F900FBE0F901F9018951F920F920FB686
S11308F00F9211240BB60F922F933F934F935F9354
S11309006F937F938F939F93AF93BF93EF93FF93D3
S1130910E0910602F0910702309711F085E01995F5
S1130920FF91EF91BF91AF919F918F917F916F91C3
S11309305F914F913F912F910F900BBE0F900FBE7F
S11309400F901F9018951F920F920FB60F921124BB
S11309500BB60F922F933F934F935F936F937F93B5
S11309608F939F93AF93BF93EF93FF93E09106020E
S1130970F0910702309711F086E01995FF91EF91FD
S1130980BF91AF919F918F917F916F915F914F91A3
S11309903F912F910F900BBE0F900FBE0F901F90A1
S11309A018951F920F920FB60F9211240BB60F9247
S11309B02F933F934F935F936F937F938F939F9363
S11309C0AF93BF93EF93FF93E0910602F091070278
S11309D0309711F087E01995FF91EF91BF91AF9196
S11309E09F918F917F916F915F914F913F912F9143
S11309F00F900BBE0F900FBE0F901F9018958B3069
S1130A0008F0BCC090E08B30910508F0BCC0FC013C
S1130A108827EE58FF4F8F4F0C94C90D81E290E068
S1130A2090930B0280930A0282E290E09093090271
S1130A308093080260E070E0CB01089584E290E0C6
S1130A4090930B0280930A0285E290E0909309024E
S1130A508093080260E070E0CB01089587E290E0A3
S1130A6090930B0280930A0288E290E0909309022B
S1130A708093080260E070E0CB0108958AE290E080
S1130A8090930B0280930A028BE290E09093090208
S1130A908093080260E070E0CB0108958DE290E05D
S1130AA090930B0280930A028EE290E090930902E5
S1130AB08093080260E070E0CB01089580E390E049
S1130AC090930B0280930A0281E390E090930902D1
S1130AD08093080260E070E0CB01089583E390E026
S1130AE090930B0280930A0284E390E090930902AE
S1130AF08093080260E070E0CB01089581E091E00A
S1130B0090930B0280930A0282E091E09093090291
S1130B108093080260E070E0CB01089584E091E0E6
S1130B2090930B0280930A0285E091E0909309026E
S1130B308093080260E070E0CB01089587E091E0C3
S1130B4090930B0280930A0288E091E0909309024B
S1130B508093080260E070E0CB0108958AE091E0A0
S1130B6090930B0280930A028BE091E09093090228
S1130B708093080260E070E0CB01089562E070E0C9
S1130B8080E090E0089560E070E0CB010895CF9399
S1130B90DF93C82FD62F33DF672B682B692BC1F463
S1130BA0D830D8F4D63010F0C630E1F041E06D2FE3
S1130BB080910A0290910B0263DB40E06D2F8091DB
S1130BC0080290910902C0DB60E070E0CB010EC026
S1130BD062E070E080E090E009C063E070E080E0F3
S1130BE090E004C063E070E080E090E0DF91CF919A
S1130BF00895CF93DF93C82FD62F01DF672B682B7F
S1130C00692B81F4D83098F4D63010F0C630A1F0B6
S1130C106D2F8091080290910902FADB60E070E088
S1130C20CB010EC062E070E080E090E009C063E0B8
S1130C3070E080E090E004C063E070E080E090E069
S1130C40DF91CF910895CF93DF93C82FD62FD7DEAE
S1130C50672B682B692B89F4D830A0F4D63010F0B8
S1130C60C630A9F040E06D2F8091080290910902EE
S1130C706BDB60E070E0CB010EC062E070E080E00E
S1130C8090E009C063E070E080E090E004C063E0BD
S1130C9070E080E090E0DF91CF910895811103C06E
S1130CA067E081E0A6CF0895811143C0411141C09E
S1130CB0FB018081833009F03CC081818530C9F516
S1130CC082818630B1F583818A3099F584818831B7
S1130CD081F567E081E08DDFFFEF29E688E1F150DF
S1130CE020408040E1F700C0000067E081E081DF40
S1130CF09FEFE9E6F8E19150E040F040E1F700C0F1
S1130D00000067E081E075DF2FEF89E698E121506C
S1130D1080409040E1F700C0000067E081E069DFB7
S1130D20EFEFF9E628E1E150F0402040E1F700C0A0
S1130D3000000895CF93DF9300D01F921F92CDB788
S1130D40DEB795E0E0E0F2E0DE01119601900D924D
S1130D509A95E1F7833049F4611107C0411105C048
S1130D60BE016F5F7F4F80E0A5D00F900F900F9072
S1130D700F900F90DF91CF91089560E083E017DA30
S1130D808AE996E06EDA44E556E06EE476E080E0C7
S1130D9016D067E081E0FBDE67E081E054DFFFCF3F
S1130DA0E82FF0E0E95DFD4F1082E0912102F0911F
S1130DB0220241E050E060E070E019950895CF927E
S1130DC0DF92EF92FF920F93CF93C82F6B017A01BA
S1130DD002E028E040E855E260E070E008D46115E4
S1130DE071058105910591F5E114F10431F1C11406
S1130DF0D10441F1D0922202C0922102F092240245
S1130E00E092230260ED76E082E997E08AD16115F1
S1130E10710581059105D1F4EC2FF0E0E95DFD4FFA
S1130E2010821092410210922D02EEE2F2E022E0D2
S1130E30208321832283238309C06CE070E080E057
S1130E4090E004C06CE070E080E090E0CF910F91FE
S1130E50FF90EF90DF90CF9008957FEF760F662399
S1130E6029F1E82FF92F4FEF5FEF21912527322F3A
S1130E7032953F70922F9327292F30E0542F442727
S1130E8042275327C901982F88279295907F482796
S1130E905927220F331F22953295307F3227207F26
S1130EA0322742275327715000F702C04FEF5FEFFC
S1130EB0CA0108951F93CF93DF93282F30E0D901FF
S1130EC0A95DBD4F9C91913029F191E0D901A95DB3
S1130ED0BD4F9C93843038F0FD01108265E070E0D2
S1130EE080E090E01BC09B01182FCEE2D2E085E0A9
S1130EF08C83FB01A3E3B2E001900D928A95E1F7A4
S1130F0065E0C901AADF9B878A874CE0BE01812F77
S1130F1010D204C069E070E080E090E0DF91CF91EE
S1130F201F910895262F4091410250E04830510509
S1130F3008F0F6C0982FFA018827E358FF4F8F4F27
S1130F4028C6223009F0ECC090930D0210920C02D6
S1130F5081E0809341020895223071F480910D0262
S1130F60981304C082E080934102089590930D0287
S1130F7081E080934102089510920D021092410283
S1130F800895223071F480910D02981304C083E017
S1130F9080934102089590930D0281E08093410271
S1130FA0089510920D02109241020895223071F4B6
S1130FB080910D02981304C084E080934102089547
S1130FC090930D0281E080934102089510920D02E6
S1130FD01092410208958FEF820F8B3060F480915C
S1130FE00D02981308C010922D022093420285E04E
S1130FF0809341020895223031F490930D0281E0F0
S113100080934102089510920D02109241020895B6
S113101080912D02E82FF0E060914202462F50E0CB
S113102041505109E417F5075CF430910D02931314
S11310301EC0ED5BFD4F20838F5F80932D020895CA
S1131040E417F507A1F480910D02981310C0ED5B2D
S1131050FD4F208310922D0286E08093410283E4A9
S113106092E0FBDE909326028093250208952230BD
S113107031F490930D0281E080934102089510921F
S11310800D0210924102089580910D02981310C030
S113109030E080912502909126029927281739077C
S11310A019F081E080930C0287E080934102089557
S11310B0223031F490930D0281E08093410208952F
S11310C010920D0210924102089580910D0298131E
S11310D01BC030E04091260250E02417350719F078
S11310E081E080930C0210924102E0912302F0917E
S11310F02402309731F040910C0263E472E0892FAE
S1131100199510920C020895223031F490930D0237
S113111081E080934102089510920D0210924102E1
S11311200895009779F06115710589F090931E0276
S113113080931D0270931C0260931B0260E070E0B8
S1131140CB01089568E070E080E090E0089568E0E5
S113115070E080E090E00895843008F0AAC0813007
S113116081F138F0823009F454C0833009F479C035
S1131170A5C080EC90E090931A028093190281EC50
S113118090E0909318028093170282EC90E0909381
S113119016028093150284EC90E0909314028093DD
S11311A0130285EC90E0909312028093110286EC76
S11311B090E09093100280930F0260E070E0CB0106
S11311C0089588EC90E090931A028093190289ECB8
S11311D090E090931802809317028AEC90E0909329
S11311E01602809315028CEC90E090931402809385
S11311F013028DEC90E090931202809311028EEC16
S113120090E09093100280930F0260E070E0CB01B5
S1131210089580ED90E090931A028093190281ED75
S113122090E0909318028093170282ED90E09093DF
S113123016028093150284ED90E09093140280933B
S1131240130285ED90E0909312028093110286EDD3
S113125090E09093100280930F0260E070E0CB0165
S1131260089580E391E090931A028093190281E338
S113127091E0909318028093170282E391E0909397
S113128016028093150284E391E0909314028093F4
S1131290130285E391E0909312028093110286E396
S11312A091E09093100280930F0260E070E0CB0114
S11312B0089565E070E080E090E0089560E070E0FB
S11312C0CB010895F89448DFE0914F0280915002D9
S11312D0E81700F580910E02882349F1A0911902C4
S11312E0B0911A028C9185FF22C0A0910F02B09197
S11312F0100281E08E0F80934F02F0E0EF5AFD4F11
S113130080818C93E0911902F0911A0280818F7D83
S113131080830DC0E8130BC080910E02882339F03E
S1131320E0911702F091180280818F7D8083789478
S113133008950F931F93CF93DF93D82F8B01C42F5E
S113134041110CC0E0911B02F0911C02309761F135
S113135019956BE070E080E090E039C080910E0256
S1131360811127C08D2FF8DE672B682B692B31F58F
S1131370C53148F581E080930E024C2F50E0B8014E
S113138081E592E00ED4C093500210924F028D2F4B
S113139099DFE0911702F0911802808180668083C2
S11313A060E070E0CB0113C06BE070E080E090E09F
S11313B00EC069E070E080E090E009C065E070E094
S11313C080E090E004C06AE070E080E090E0DF91AB
S11313D0CF911F910F910895603629E0720781051E
S11313E09105A1F0603C22E172078105910589F025
S11313F0603825E272078105910571F061157B441F
S113140081059105D9F483E390E008C080EA91E076
S113141005C08FEC90E002C087E690E0E0911302F3
S1131420F09114028083E0911102F0911202882756
S11314309F70908360E070E0CB01089566E070E0F7
S113144080E090E008959BEF980F943008F089C0F5
S1131450863019F118F4853039F06AC08730B1F15B
S1131460883009F44CC064C0E0911702F09118026E
S113147080818B7F8083E0911502F0911602808138
S11314808B7F8083E0911502F091160280818D7F1D
S1131490808360E070E0CB010895E0911702F09141
S11314A0180280818B7F8083E0911502F0911602EF
S11314B080818B7F8083E0911502F09116028081F8
S11314C08260808360E070E0CB010895E0911702B0
S11314D0F091180280818B7F8083E0911502F09156
S11314E01602808184608083E0911502F0911602D7
S11314F080818D7F808360E070E0CB010895E0916E
S11315001702F091180280818B7F8083E09115028D
S1131510F0911602808184608083E0911502F0913D
S1131520160280818260808360E070E0CB010895C0
S1131530E0911702F091180280818B7F8083E09103
S11315401502F0911602808184608083E091150277
S1131550F091160280818260808360E070E0CB01AC
S1131560089567E070E080E090E00895813009F12B
S113157088F0823069F5E0911502F09116028081BD
S11315808F7D8083E0911502F091160280818F7E19
S113159080830895E0911502F091160280818062A3
S11315A08083E0911502F091160280818F7E808302
S11315B00895E0911502F091160280818062808383
S11315C0E0911502F0911602808180618083089574
S11315D0E0911502F091160280818F7D8083E09165
S11315E01502F091160280818F7E80830895CF9238
S11315F0DF92EF92FF920F93CF936A017B01C22F88
S11316007894AADD672B682B692B09F04DC0C701BC
S1131610B601E2DE672B682B692B09F04AC08C2FD8
S113162012DF672B682B692B09F048C0802F9EDFDF
S1131630E0911502F091160280818F738083E0910E
S11316401502F09116028081877F8083E091150254
S1131650F091160280818E7F8083E0911902F091CF
S11316601A02808180648083E0911902F0911A0249
S11316708081807E8083E0911702F091180280813E
S113168080688083E0911702F091180280818F793D
S11316908083E0911702F091180280818861808331
S11316A060E070E0CB010EC065E070E080E090E0A7
S11316B009C066E070E080E090E004C067E070E09C
S11316C080E090E0CF910F91FF90EF90DF90CF906A
S11316D008951F920F920FB60F9211240BB60F921A
S11316E02F933F934F935F936F937F938F939F9326
S11316F0AF93BF93EF93FF938091C00041E082FFCB
S113170040E0E0911D02F0911E02309721F06091BB
S1131710C60080E01995FF91EF91BF91AF919F9121
S11317208F917F916F915F914F913F912F910F9086
S11317300BBE0F900FBE0F901F9018951F920F9223
S11317400FB60F9211240BB60F922F933F934F9322
S11317505F936F937F938F939F93AF93BF93EF9315
S1131760FF938091C80041E082FF40E0E0911D02B8
S1131770F0911E02309721F06091CE0081E019951E
S1131780FF91EF91BF91AF919F918F917F916F9155
S11317905F914F913F912F910F900BBE0F900FBE11
S11317A00F901F9018951F920F920FB60F9211244D
S11317B00BB60F922F933F934F935F936F937F9347
S11317C08F939F93AF93BF93EF93FF938091D00038
S11317D041E082FF40E0E0911D02F0911E0230974B
S11317E021F06091D60082E01995FF91EF91BF91AD
S11317F0AF919F918F917F916F915F914F913F91A5
S11318002F910F900BBE0F900FBE0F901F90189545
S11318101F920F920FB60F9211240BB60F922F93B3
S11318203F934F935F936F937F938F939F93AF9364
S1131830BF93EF93FF938091300141E082FF40E03A
S1131840E0911D02F0911E02309721F06091360163
S113185083E01995FF91EF91BF91AF919F918F9183
S11318607F916F915F914F913F912F910F900BBE9C
S11318700F900FBE0F901F9018951F920F920FB6E6
S11318800F9211240BB60F922F933F934F935F93B4
S11318906F937F938F939F93AF93BF93EF93FF9334
S11318A010924F0210920E0280E056DCE091170273
S11318B0F091180280818F7B8083E0911B02F0916C
S11318C01C02309711F080E01995FF91EF91BF91C0
S11318D0AF919F918F917F916F915F914F913F91C4
S11318E02F910F900BBE0F900FBE0F901F90189565
S11318F01F920F920FB60F9211240BB60F922F93D3
S11319003F934F935F936F937F938F939F93AF9383
S1131910BF93EF93FF9310924F0210920E0281E057
S11319201BDCE0911702F091180280818F7B808389
S1131930E0911B02F0911C02309711F081E019959F
S1131940FF91EF91BF91AF919F918F917F916F9193
S11319505F914F913F912F910F900BBE0F900FBE4F
S11319600F901F9018951F920F920FB60F9211248B
S11319700BB60F922F933F934F935F936F937F9385
S11319808F939F93AF93BF93EF93FF9310924F0264
S113199010920E0282E0E0DBE0911702F09118024F
S11319A080818F7B8083E0911B02F0911C02309731
S11319B011F082E01995FF91EF91BF91AF919F9142
S11319C08F917F916F915F914F913F912F910F90E4
S11319D00BBE0F900FBE0F901F9018951F920F9281
S11319E00FB60F9211240BB60F922F933F934F9380
S11319F05F936F937F938F939F93AF93BF93EF9373
S1131A00FF9310924F0210920E0283E0A5DBE09147
S1131A101702F091180280818F7B8083E0911B0272
S1131A20F0911C02309711F083E01995FF91EF912A
S1131A30BF91AF919F918F917F916F915F914F91E2
S1131A403F912F910F900BBE0F900FBE0F901F90E0
S1131A5018951F920F920FB60F9211240BB60F9286
S1131A602F933F934F935F936F937F938F939F93A2
S1131A70AF93BF93EF93FF9380E024DCFF91EF914A
S1131A80BF91AF919F918F917F916F915F914F9192
S1131A903F912F910F900BBE0F900FBE0F901F9090
S1131AA018951F920F920FB60F9211240BB60F9236
S1131AB02F933F934F935F936F937F938F939F9352
S1131AC0AF93BF93EF93FF9381E0FCDBFF91EF9122
S1131AD0BF91AF919F918F917F916F915F914F9142
S1131AE03F912F910F900BBE0F900FBE0F901F9040
S1131AF018951F920F920FB60F9211240BB60F92E6
S1131B002F933F934F935F936F937F938F939F9301
S1131B10AF93BF93EF93FF9382E0D4DBFF91EF91F8
S1131B20BF91AF919F918F917F916F915F914F91F1
S1131B303F912F910F900BBE0F900FBE0F901F90EF
S1131B4018951F920F920FB60F9211240BB60F9295
S1131B502F933F934F935F936F937F938F939F93B1
S1131B60AF93BF93EF93FF9383E0ACDBFF91EF91CF
S1131B70BF91AF919F918F917F916F915F914F91A1
S1131B803F912F910F900BBE0F900FBE0F901F909F
S1131B901895EE0FFF1F881F8BBF0790F691E02D5D
S1131BA01994FB01DC0102C001900D924150504098
S10B1BB0D8F70895F894FFCF63
S1091BB80305060A1800F3
S9030000FC
